:0300000002004CAF
:100008000000E2FBEAF2802C0000E0FBEAF080242A
:10001800E6B50202EBF62200E2B50202EBF222009C
:10002800E0B50202EBF02230F6E0A88220F5D3EA30
:10003800C6F582228B822230F6E6A88220F5D98086
:01004800CFE8
:0300A5000200490D
:030049000207A803
:1000A800AE82AF837C007D00C3EC9EED9F50147A36
:1000B800787B001ABAFF011BEA4B70F70CBC00E80A
:1000C8000D80E522D2B19000011200A8C2B19000C3
:1000D800010200A8E582FF540124FF92B2EF035405
:1000E8000124FF92B3EF0303540124FF92B4EFA25B
:1000F800E3E43324FF92B50200CCAF82C2B0EFC470
:10010800540FF582C0071200DCD007740F5FF58228
:100118001200DC9000020200A8AF82D2B0EFC454F3
:100128000FF582C0071200DCD007740F5FF582124A
:1001380000DC9000010200A8AD82AE83AFF08D8292
:100148008E838FF0120911FC60188C82C007C006DC
:10015800C005120121D005D006D0070DBD00DF0E65
:1001680080DC22C2B0C2B19000321200A8758203AE
:100178001200DC9000051200A87582031200DC90C2
:1001880000011200A87582031200DC900001120021
:10019800A87582021200DC9000011200A87582285E
:1001A80012010275820C1201027582061201027593
:1001B80082011201029000050200A8758201120155
:1001C800029000050200A87582C0020102D280D206
:1001D8008122C280D28122D280C28122E582FF247C
:1001E800F2500122EF240A83F582EF241283F5836B
:1001F800E47369161D242B32396940474E555C63F8
:100208000202020202020202020202020202E50CD9
:1002180024FF929022E50C24FF929122E50C24FF02
:10022800929222E50C24FF929322E50C24FF9294EB
:1002380022E50C24FF929522E50C24FF92A622E5E4
:100248000C24FF92A522E50C24FF92A422E50C249D
:10025800FF92A322E50C24FF92A222E50C24FF9230
:10026800A122E582FF24F250030202F2EF240A835E
:10027800F582EF241283F583E473F29EA5ACB3BA3A
:10028800C1F2C8CFD6DDE4EB02020202020202028A
:10029800020202020202A290E433F58222A291E451
:1002A80033F58222A292E433F58222A293E433F555
:1002B8008222A294E433F58222A295E433F58222C5
:1002C800A2A6E433F58222A2A5E433F58222A2A4F1
:1002D800E433F58222A2A3E433F58222A2A2E43316
:1002E800F58222A2A1E433F5822275820022750CE0
:1002F800010201E4AF82850982C0071202F6D00725
:10030800750C008F82C0071201E4750C0085088205
:100318001201E49000021200A8D007C37403950AE2
:10032800E433FE7026E50A75F003A49003377302E0
:10033800034302034702034B02034F7D00800E7DF7
:1003480000800A7D0180067D0180027D008509828A
:10035800C007C006C00512026AAC82D005D006D01C
:1003680007ECB50502800475820022750C008F82A7
:10037800C007C0061201E4750C018508821201E469
:100388009000021200A8D006D007EE7026E50A7584
:10039800F003A490039F730203AB0203AF0203B3FD
:1003A8000203B77D00800E7D01800A7D0180067DF5
:1003B8000080027D01850982C007C006C0051202BF
:1003C8006AAC82D005D006D007ECB505028004756A
:1003D800820022750C018F82C007C0061201E475E5
:1003E8000C008508821201E49000021200A8D006D1
:1003F800D007EE7026E50A75F003A490040773028F
:10040800041302041702041B02041F7D00800E7DE2
:1004180001800A7D0180067D0080027D01850982B8
:10042800C007C006C00512026AAC82D005D006D04B
:1004380007ECB50502800475820022750C018F82D5
:10044800C0061201E4750C018508821201E49000CF
:10045800021200A8D006EE7026E50A75F003A490F3
:10046800046B7302047702047B02047F0204837F17
:1004780001800E7F01800A7F0080067F0080027F56
:1004880000850982C00712026AAE82D007EEB5075E
:10049800028004758200227582012275080275099E
:1004A80003750A027582011202FCE5827003F58267
:1004B80022750805750906750A027582041202FC80
:1004C800E5827003F5822275080A750908750A0223
:1004D8007582091202FCE5827003F5822275080D07
:1004E80075090B750A0275820C1202FCE58270030D
:1004F800F5822275820122750802750903750A00C2
:100508007582011202FCE5827003F58222750805E6
:10051800750906750A007582041202FCE5827003EB
:10052800F5822275080A750908750A00758209128C
:1005380002FCE5827003F5822275080D75090B75BA
:100548000A0075820C1202FCE5827003F58222759E
:10055800820122750802750903750A017582011264
:1005680002FCE5827003F582227508057509067597
:100578000A017582041202FCE5827003F582227575
:10058800080A750908750A017582091202FCE582D4
:100598007003F5822275080D75090B750A017582BD
:1005A8000C1202FCE5827003F58222758201227525
:1005B8000802750903750A047582011202FCE582B6
:1005C8007003F58222750805750906750A04758297
:1005D800041202FCE5827003F5822275080A750987
:1005E80008750A047582091202FCE5827003F58217
:1005F8002275080D75090B750A0475820C1202FC28
:10060800E5827003F5822275820122750803750957
:1006180001750A037582021202FCE5827003F582F5
:1006280022750806750904750A037582051202FC0D
:10063800E5827003F5822275080975090A750A03AF
:100648007582081202FCE5827003F5822275080C97
:1006580075090D750A0375820B1202FCE582700399
:10066800F5822275820122AF82850B82C0071202B1
:10067800F6D007750C008F82C0071201E4900002C3
:100688001200A8850B8212026AAE82D007BE010250
:10069800800475820022750C018F821201E490009B
:1006A800021200A8850B8212026AE5826004758234
:1006B800002275820122750B0275820112066FE510
:1006C800827003F58222750B0475820312066FE5AA
:1006D800827003F58222750B0675820512066FE596
:1006E800827003F58222750B0875820912066FE580
:1006F800827003F58222750B0A75820B12066FE56C
:10070800827003F58222750B0C75820D12066FE557
:10071800827003F5822275820122AF82C00712011E
:10072800C3D007EF24FA4048EF2F90073673800AAA
:1007380080118018801F8026802D90093175F080E7
:1007480002014090093D75F080020140900948750A
:10075800F08002014090095375F080020140900931
:100768005E75F08002014090096875F080020140D2
:1007780022E582FF24FA4024EF2F90078673800A2F
:10078800800B800C800D800E800F0204A3020613DC
:100798000206BE0204FF02055B0205B7758200224D
:1007A8001201D5D2B6D2B712016B1201C3900973E8
:1007B80075F0801201401201CF90097D75F080120A
:1007C80001407F0030B6FD900014C0071200A8D089
:1007D8000730B6F08F82C0071207221201CF9009A6
:1007E8008A75F0801201401201D59000641200A8A9
:1007F800D0078F82C007120779E582D007607AC0D8
:10080800071201C3D007EF2F90081473800A8017CE
:1008180080248031803E804B90099575F080C00718
:10082800120140D00780499009A175F080C00712D5
:100838000140D007803A9009AD75F080C0071201D9
:1008480040D007802B9009B975F080C0071201408D
:10085800D007801C9009C575F080C007120140D0F0
:1008680007800D9009D175F080C007120140D007AC
:10087800C0071201DAD0078078C0071201C3D00779
:10088800EF2F90088E73800A801780248031803E75
:10089800804B9009DD75F080C007120140D00780B9
:1008A800499009E975F080C007120140D007803AE5
:1008B8009009F575F080C007120140D007802B9091
:1008C8000A0175F080C007120140D007801C900A09
:1008D8000D75F080C007120140D007800D900A19ED
:1008E80075F080C007120140D007C0071201DFD0A1
:1008F800070FBF060040027F0020B6FD900032C0FF
:09090800071200A8D0070207CC79
:1009310037344C533030204E414E440037344C5301
:100941003032204E4F520037344C533034204E4F0A
:10095100540037344C53303820414E440037344C26
:10096100533332204F520037344C53383620584FCE
:1009710052004943205445535445520037344C5397
:1009810030302052454144590054455354494E4753
:100991002E2E2E0037344C5330302050415353000B
:1009A10037344C53303220504153530037344C5379
:1009B100303420504153530037344C533038205099
:1009C1004153530037344C53333220504153530079
:1009D10037344C53383620504153530037344C533D
:1009E1003030204641494C0037344C533032204698
:1009F10041494C0037344C533034204641494C0076
:100A010037344C533038204641494C0037344C532D
:100A11003332204641494C0037344C533836204656
:040A210041494C00FB
:06007B00E478FFF6D8FD59
:100059007900E94400601B7A00900A25780175A0AF
:1000690000E493F2A308B8000205A0D9F4DAF27506
:02007900A0FFE6
:100081007800E84400600A790175A000E4F309D81A
:10009100FC7800E84400600C7900900001E4F0A3D2
:0400A100D8FCD9FAB4
:0D004C0075810C12092DE582600302004948
:1009110020F71430F6148883A88220F507E6A8830F
:1009210075830022E280F7E49322E022758200229F
:00000001FF
