:0300000002004CAF
:100008000000E2FBEAF2802C0000E0FBEAF080242A
:10001800E6B50202EBF62200E2B50202EBF222009C
:10002800E0B50202EBF02230F6E0A88220F5D3EA30
:10003800C6F582228B822230F6E6A88220F5D98086
:01004800CFE8
:0300A5000200490D
:0300490002032A85
:1000A800AE82AF837C007D00C3EC9EED9F50147A36
:1000B800787B001ABAFF011BEA4B70F70CBC00E80A
:1000C8000D80E522D2B19000011200A8C2B19000C3
:1000D800010200A8E582FF540124FF92B2EF035405
:1000E8000124FF92B3EF0303540124FF92B4EFA25B
:1000F800E3E43324FF92B50200CCAF82C2B0EFC470
:10010800540FF582C0071200DCD007740F5FF58228
:100118001200DC9000020200A8AF82D2B0EFC454F3
:100128000FF582C0071200DCD007740F5FF582124A
:1001380000DC9000010200A8AD82AE83AFF08D8292
:100148008E838FF012039CFC60188C82C007C00657
:10015800C005120121D005D006D0070DBD00DF0E65
:1001680080DC22C2B0C2B19000321200A8758203AE
:100178001200DC9000051200A87582031200DC90C2
:1001880000011200A87582031200DC900001120021
:10019800A87582021200DC9000011200A87582285E
:1001A80012010275820C1201027582061201027593
:1001B80082011201029000050200A8758201120155
:1001C800029000050200A8D280D28122C280D2818A
:1001D80022D280C28122C290C2919000021200A84D
:1001E80020920475820022C290D2919000021200DF
:1001F800A820920475820022D290C2919000021227
:1002080000A820920475820022D290D29190000218
:100218001200A83092047582002275820122C293CE
:10022800C2949000021200A820950475820022C290
:1002380093D2949000021200A8209504758200229F
:10024800D293C2949000021200A8209504758200EF
:1002580022D293D2949000021200A830950475829D
:10026800002275820122C2A5C2A49000021200A831
:1002780020A60475820022C2A5D2A4900002120012
:10028800A820A60475820022D2A5C2A4900002125A
:1002980000A820A60475820022D2A5D2A49000024C
:1002A8001200A830A6047582002275820122C2A21B
:1002B800C2A19000021200A820A30475820022C2E5
:1002C800A2D2A19000021200A820A30475820022E5
:1002D800D2A2C2A19000021200A820A30475820035
:1002E80022D2A2D2A19000021200A830A3047582E3
:1002F8000022758201221201DEE5827003F5822256
:10030800120226E5827003F5822212026EE58270DF
:1003180003F582221202B6E5827003F58222758205
:1003280001221201CFD2B6D2B712016B1201C390CB
:1003380003BC75F0801201407582C012010290035F
:10034800C675F08012014030B6FD9000141200A866
:1003580030B6F41201C39003D375F0801201401235
:1003680001CF1202FEE58260111201C39003E2750B
:10037800F0801201401201D4800F1201C39003EEE5
:1003880075F0801201401201D920B6FD90001412B8
:0403980000A880B386
:1003BC004943205445535445520037344C53303044
:1003CC002052454144590054455354494E47203717
:1003DC00344C5330300037344C5330302050415370
:0E03EC00530037344C533030204641494C000A
:06007B00E478FFF6D8FD59
:100059007900E94400601B7A009003FA780175A0E1
:1000690000E493F2A308B8000205A0D9F4DAF27506
:02007900A0FFE6
:100081007800E84400600A790175A000E4F309D81A
:10009100FC7800E84400600C7900900001E4F0A3D2
:0400A100D8FCD9FAB4
:0D004C007581071203B8E5826003020049C8
:10039C0020F71430F6148883A88220F507E6A8838A
:1003AC0075830022E280F7E49322E022758200221A
:00000001FF
