:1000000002003000000000000000000000000000BE
:100030007590FF75A0FF75B0FF11F1740131169036
:100040000160314520B60520B71280F831577401A0
:100050003116900170314520B6FD80E831577401AA
:10006000311690018031451184500B740131169086
:10007000019B314580097401311690018F31452073
:10008000B7FD80C0C3D292C290C29130925BD29130
:10009000309256D290209251C29130924CD295C259
:1000A00093C294309545D294309540D29320953B9D
:1000B000C294309536D2A0C2A1C2A230A02FD2A243
:1000C00030A02AD2A120A025C2A230A020D2A3C253
:1000D000A4C2A530A319D2A530A314D2A420A30F83
:1000E000C2A530A30AC322D3D3D3D3C2B074033181
:1000F0002C3157312C3157312C31577402312C743B
:10010000283116740C31167401311674063116221A
:10011000C2B0312022D2B0312022FFC4540F312C82
:10012000EF540F312C22A2E092B2A2E192B3A2E2EC
:1001300092B4A2E392B5D2B13152C2B1315222E4AB
:1001400093600E311BA3E480FE227D14DD06227E27
:10015000147DFFDD06DE02224943205445535445F9
:10016000522052454144590037344C5330302053CB
:10017000454C45435445440054455354494E47204B
:1001800037344C5330300037344C533030205041EA
:0F01900053530037344C533030204641494C0014
:00000001FF
